:100000000C9462000C948A000C948A000C948A0070
:100010000C948A000C948A000C948A000C948A0038
:100020000C948A000C948A000C948A000C948A0028
:100030000C948A000C948A000C948A000C948A0018
:100040000C945E020C948A000C94CE020C94A802CC
:100050000C948A000C948A000C948A000C948A00F8
:100060000C948A000C948A000000000023002600F3
:10007000290000000000240027002A0000000000E2
:10008000250028002B0004040404040404040202D4
:100090000202020203030303030301020408102007
:1000A0004080010204081020010204081020000012
:1000B0000008000201000003040700000000000027
:1000C0000000AF0411241FBECFEFD8E0DEBFCDBFCC
:1000D00011E0A0E0B1E0E8E7FCE002C005900D927D
:1000E000A032B107D9F721E0A0E2B1E001C01D9232
:1000F000A83CB207E1F710E0C2E6D0E004C02197C7
:10010000FE010E942F06C136D107C9F70E944503A0
:100110000C943A060C94000090E0FC01E255FF4F6D
:100120002491FC01E656FF4F3491FC01EA57FF4F42
:10013000E491EE2309F43CC0222339F1233091F0FD
:1001400038F42130A9F0223001F584B58F7D12C03A
:10015000273091F02830A1F02430B9F4809180004C
:100160008F7D03C0809180008F77809380000DC0C9
:1001700084B58F7784BD09C08091B0008F7703C0AC
:100180008091B0008F7D8093B000F0E0EE0FFF1FF4
:10019000E458FF4FA591B4919FB7F894611104C042
:1001A0008C913095382302C0EC913E2B3C939FBF3D
:1001B0000895CF93DF9390E0FC01E656FF4F249122
:1001C000FC01EA57FF4F8491882361F190E0880F8A
:1001D000991FFC01EE58FF4FC591D491FC01E458E2
:1001E000FF4FA591B491611109C09FB7F894888120
:1001F000209582238883EC912E230BC0623061F41A
:100200009FB7F8948881322F309583238883EC91AF
:100210002E2B2C939FBF06C08FB7F894E8812E2B0E
:1002200028838FBFDF91CF9108953FB7F8948091D5
:10023000270190912801A0912901B0912A0126B5AA
:10024000A89B05C02F3F19F00196A11DB11D3FBF0E
:10025000BA2FA92F982F8827820F911DA11DB11D9C
:10026000BC01CD0142E0660F771F881F991F4A9598
:10027000D1F70895CF92DF92EF92FF920F931F93E1
:10028000CF93DF936C017A018B01C0E0D0E0CE15F3
:10029000DF0581F0D8016D918D01D601ED91FC91C2
:1002A0000190F081E02DC6010995892B11F021966E
:1002B000EECF7E01C701DF91CF911F910F91FF908B
:1002C000EF90DF90CF900895089580E090E008953A
:1002D000FC01538D448D252F30E0842F90E0821B4C
:1002E000930B541710F0CF96089501970895FC01D1
:1002F000918D828D981761F0828DDF01A80FB11D5D
:100300005D968C91928D9F5F9F73928F90E0089580
:100310008FEF9FEF0895FC01918D828D981731F03A
:10032000828DE80FF11D858D90E008958FEF9FEF8E
:100330000895FC01918D228D892F90E0805C9F4F64
:10034000821B91098F73992708958BE291E00E9497
:10035000990121E0892B09F420E0822F0895FC0106
:10036000848DDF01A80FB11DA35ABF4F2C91848D3E
:1003700090E001968F739927848FA689B7892C9373
:10038000A089B1898C91837080648C93938D848DC6
:10039000981306C00288F389E02D80818F7D8083C9
:1003A0000895EF92FF920F931F93CF93DF93EC0189
:1003B00081E0888F9B8D8C8D981305C0E889F98921
:1003C000808185FD26C0F62E0B8D10E00F5F1F4F3C
:1003D0000F731127E02E8C8DE8120CC00FB607FCAE
:1003E000FACFE889F989808185FFF5CFCE010E9497
:1003F000AF01F1CF8B8DFE01E80FF11DE35AFF4FE6
:10040000F0829FB7F8940B8FEA89FB898081806224
:100410000AC09FB7F894EE89FF896083E889F9895B
:1004200080818370806480839FBF81E090E0DF9152
:10043000CF911F910F91FF90EF900895CF93DF938D
:10044000EC01888D8823C9F0EA89FB89808185FDCC
:1004500005C0A889B9898C9186FD0FC00FB607FC2D
:10046000F5CF808185FFF2CFA889B9898C9185FF6E
:10047000EDCFCE010E94AF01E7CFDF91CF9108957C
:1004800080E090E0892B29F00E94A50181110C9455
:1004900000000895009769F0FC0101900020E9F741
:1004A0003197AF01481B590BBC018BE291E00C94D2
:1004B0003A0180E090E008950E9435061F920F9265
:1004C0000FB60F9211242F933F938F939F93AF9367
:1004D000BF938091230190912401A0912501B091B7
:1004E00026013091220123E0230F2D3720F40196BD
:1004F000A11DB11D05C026E8230F0296A11DB11D47
:10050000209322018093230190932401A09325013D
:10051000B09326018091270190912801A091290193
:10052000B0912A010196A11DB11D809327019093DE
:100530002801A0932901B0932A01BF91AF919F9107
:100540008F913F912F910F900FBE0F901F90189594
:100550001F920F920FB60F9211242F933F934F9338
:100560005F936F937F938F939F93AF93BF93EF931B
:10057000FF938BE291E00E94AF01FF91EF91BF9159
:10058000AF919F918F917F916F915F914F913F912B
:100590002F910F900FBE0F901F9018951F920F92E2
:1005A0000FB60F9211242F938F939F93EF93FF9386
:1005B000E0913B01F0913C018081E0914101F0919B
:1005C000420182FD12C09081809144018F5F8F7340
:1005D00020914501821751F0E0914401F0E0E55D82
:1005E000FE4F958F8093440101C08081FF91EF9170
:1005F0009F918F912F910F900FBE0F901F90189584
:10060000CF92DF92EF92FF920F931F93E82FF92F73
:1006100005C0015011092109310961F1908196232A
:100620009417B9F305C0015011092109310911F1DD
:10063000908196239413F7CFC12CD12CE12CF12C6F
:100640000AC08FEFC81AD80AE80AF80A0C151D0567
:100650002E053F0579F080818623841791F36C2D58
:100660007D2D8E2D9F2D1F910F91FF90EF90DF908C
:10067000CF90089560E070E080E090E01F910F91CE
:10068000FF90EF90DF90CF900895CF93DF93CDB799
:10069000DEB7A1970FB6F894DEBF0FBECDBF78943A
:1006A00084B5826084BD84B5816084BD85B5826077
:1006B00085BD85B5816085BD80916E008160809328
:1006C0006E00109281008091810082608093810091
:1006D00080918100816080938100809180008160A1
:1006E000809380008091B10084608093B1008091FC
:1006F000B00081608093B00080917A008460809324
:100700007A0080917A00826080937A0080917A00EA
:10071000816080937A0080917A00806880937A006B
:100720001092C10061E083E00E94D90061E08CE09A
:100730000E94D90061E089E00E94D90060E08AE06F
:100740000E94D900E0913B01F0913C0182E080835E
:10075000E0913701F09138011082E0913901F09178
:100760003A018FEC808310924301E0913F01F091B8
:10077000400186E08083E0913D01F0913E0180815F
:1007800080618083E0913D01F0913E01808188602D
:100790008083E0913D01F0913E01808180688083FB
:1007A000E0913D01F0913E0180818F7D808320E9C1
:1007B000222E20E0322E3AE0832E912CA12CB12C57
:1007C00060E089E00E948C0083E090E00197F1F7FF
:1007D00061E089E00E948C0083E290E00197F1F7EC
:1007E00060E089E00E948C00E4EAF0E06491F101AD
:1007F0008491E82FF0E0EE0FFF1FE859FF4F85913D
:10080000949100E412E42FE030E0462F0E940003B0
:10081000611571058105910549F0DC01CB01019657
:10082000A11DB11DBC01CD019F7003C060E070E04F
:10083000CB010E94140526E933E44BE05DE30E94FE
:10084000780520E030E040E05FE30E9478050E94F8
:10085000DC04709321016093200182E191E00E9409
:100860004A02C0902001D09021010D2C000CEE080E
:10087000FF08F7FE20C06DE28BE291E00E94D101FB
:1008800022273327A9012C193D094E095F0919A216
:10089000CE0181967C01CA01B901A50194010E9493
:1008A0000D06605DF70162937F0121153105410559
:1008B000510589F715C0A701960119A2CE018196AD
:1008C0007C01CA01B901A50194010E940D06605D79
:1008D000F70162937F01211531054105510589F723
:1008E000C7010E944A028DE191E00E944A02809174
:1008F00020019091210142977CF561E083E00E9404
:100900008C0061E08CE00E948C000E9415012B019C
:100910003C0188E5C82E8BE1D82EE12CF12C0E94F9
:100920001501DC01CB0184199509A609B709883E98
:100930009340A105B10598F3F1E0CF1AD108E10881
:10094000F10828EE420E23E0521E611C711CC114F6
:10095000D104E104F10419F70E94400231CFEBE227
:10096000F1E01382128288EE93E0A0E0B0E084838D
:100970009583A683B78384E091E09183808385EC9F
:1009800090E09587848784EC90E09787868780EC59
:1009900090E0918B808B81EC90E0938B828B82EC4A
:1009A00090E0958B848B86EC90E0978B868B118EF4
:1009B000128E138E148E08950E94E3046894B11170
:1009C0000C94720508950E94570588F09F5798F07F
:1009D000B92F9927B751B0F0E1F0660F771F881F44
:1009E000991F1AF0BA95C9F714C0B13091F00E945E
:1009F0007105B1E008950C947105672F782F882751
:100A0000B85F39F0B93FCCF3869577956795B39584
:100A1000D9F73EF490958095709561957F4F8F4FF3
:100A20009F4F0895E89409C097FB3EF490958095F8
:100A3000709561957F4F8F4F9F4F9923A9F0F92FA4
:100A400096E9BB279395F695879577956795B79522
:100A5000F111F8CFFAF4BB0F11F460FF1BC06F5F08
:100A60007F4F8F4F9F4F16C0882311F096E911C01A
:100A7000772321F09EE8872F762F05C0662371F03B
:100A800096E8862F70E060E02AF09A95660F771F4F
:100A9000881FDAF7880F9695879597F9089557FD7F
:100AA0009058440F551F59F05F3F71F04795880FDC
:100AB00097FB991F61F09F3F79F087950895121673
:100AC00013061406551FF2CF4695F1DF08C016161F
:100AD00017061806991FF1CF8695710561050894D0
:100AE0000895E894BB2766277727CB0197F90895E7
:100AF0000E948B050C94FC050E94EE0538F00E94C4
:100B0000F50520F0952311F00C94E5050C94EB0508
:100B100011240C9472050E944F0570F3959FC1F348
:100B2000950F50E0551F629FF001729FBB27F00D9B
:100B3000B11D639FAA27F00DB11DAA1F649F6627F0
:100B4000B00DA11D661F829F2227B00DA11D621F3F
:100B5000739FB00DA11D621F839FA00D611D221FF9
:100B6000749F3327A00D611D231F849F600D211DDD
:100B7000822F762F6A2F11249F5750409AF0F1F060
:100B800088234AF0EE0FFF1FBB1F661F771F881FC9
:100B900091505040A9F79E3F510580F00C94E50517
:100BA0000C9472055F3FE4F3983ED4F386957795F5
:100BB0006795B795F795E7959F5FC1F7FE2B880F6F
:100BC000911D9695879597F9089597F99F6780E805
:100BD00070E060E008959FEF80EC089500240A948F
:100BE0001616170618060906089500240A94121608
:100BF0001306140605060895092E0394000C11F43B
:100C0000882352F0BB0F40F4BF2B11F460FF04C0E7
:100C10006F5F7F4F8F4F9F4F0895A1E21A2EAA1B3F
:100C2000BB1BFD010DC0AA1FBB1FEE1FFF1FA2179C
:100C3000B307E407F50720F0A21BB30BE40BF50B99
:100C4000661F771F881F991F1A9469F76095709522
:100C5000809590959B01AC01BD01CF010895EE0FE9
:100C6000FF1F0590F491E02D099481E090E0F89445
:080C70000C943A06F894FFCF42
:100C780000000000D1013A0168011E0299017701C4
:100C88008B0144697374616E63653A20000D0A0034
:00000001FF
